:100000000C9446010C9465010C9465010C946501F7
:100010000C9465010C9465010C9465010C946501C8
:100020000C9465010C9465010C9465010C946501B8
:100030000C9465010C944C060C9465010C946501BC
:100040000C9465010C9465010C9465010C94650198
:100050000C9465010C9465010C9465010C94650188
:100060000C9465010C9465010C9465010C94650178
:100070000C9465010C9465010C9465010C94650168
:100080000C9465010C9465010C94650137073E07DB
:100090009907A007A707AE07B507BC07A808A808D7
:1000A000ED07FF07120840087D08A80800000000BF
:1000B0000000005F00000007000700147F147F1499
:1000C000242A7F2A122313086462364955225000DD
:1000D00005030000001C2241000041221C001408FE
:1000E0003E081408083E08080050300000080808C0
:1000F0000808006060000020100804023E514945D5
:100100003E00427F400042615149462141454B310A
:100110001814127F1027454545393C4A494930019A
:10012000710905033649494936064949291E0036F1
:100130003600000056360000081422410014141442
:100140001414004122140802015109063249794170
:100150003E7E1111117E7F494949363E414141227F
:100160007F4141221C7F494949417F090909013EDC
:100170004149497A7F0808087F00417F41002040BB
:10018000413F017F081422417F404040407F020CE4
:10019000027F7F0408107F3E4141413E7F090909EB
:1001A000063E4151215E7F09192946464949493198
:1001B00001017F01013F4040403F1F2040201F3F81
:1001C0004038403F63140814630708700807615102
:1001D000494543007F41410002040810200041418D
:1001E0007F0004020102044040404040000102043C
:1001F0000020545454787F484444383844444420C0
:10020000384444487F3854545418087E0901020C7D
:100210005252523E7F0804047800447D4000204042
:10022000443D007F1028440000417F40007C0418BA
:1002300004787C0804047838444444387C1414144A
:1002400008081414187C7C080404084854545420EA
:10025000043F4440203C4040207C1C2040201C3C6B
:100260004030403C44281028440C5050503C4464DA
:10027000544C44000836410000007F000000413625
:1002800008001008081008000000000011241FBE1C
:10029000CFEFD0E4DEBFCDBF13E0A0E0B1E0E4EAF1
:1002A000FAE100E00BBF02C007900D92AE37B10734
:1002B000D9F725E0AEE7B3E001C01D92A739B20738
:1002C000E1F70E94060B0C94500D0C940000CF93A4
:1002D000DF93CDB7DEB781E00E948E010000DF9191
:1002E000CF910895CF93DF93CDB7DEB784E690E04A
:1002F0000E94320288E30E948E0186E00E948E01F5
:100300008FE00E948E0181E00E948E018AE090E0E1
:100310000E9432020000DF91CF910895CF93DF93C6
:100320001F92CDB7DEB789838BE290E02BE230E0FD
:10033000F90120812F7BFC01208388E290E0298154
:10034000FC0120838BE290E02BE230E0F901208178
:100350002068FC01208300008BE290E02BE230E07B
:10036000F90120812F77FC01208382E090E00E9438
:10037000320200000F90DF91CF910895CF93DF9369
:100380001F92CDB7DEB789838BE290E02BE230E09D
:10039000F90120812064FC01208388E290E029811A
:1003A000FC0120838BE290E02BE230E0F901208118
:1003B0002068FC01208300008BE290E02BE230E01B
:1003C000F90120812F77FC01208381E090E00E94D9
:1003D000320200000F90DF91CF910895CF93DF9309
:1003E00000D000D0CDB7DEB78A837C836B830E94B8
:1003F00067018A81898311C0898191E0980F99836F
:100400000E941B028B819C819C012F5F3F4F3C838C
:100410002B83FC0180810E94BE018B819C81FC01A9
:100420008081882349F700000F900F900F900F9064
:10043000DF91CF910895CF93DF931F92CDB7DEB7B1
:1004400089838981813128F4898181580E948E01B4
:1004500004C0898181550E948E0100000F90DF91B8
:10046000CF910895CF93DF9300D000D000D0CDB7C7
:10047000DEB79E838D831A82198213C01C821B8271
:1004800006C000008B819C8101969C838B838B81AD
:100490009C8187309340ACF389819A8101969A833D
:1004A000898329813A818D819E812817390734F308
:1004B000000026960FB6F894DEBF0FBECDBFDF91C9
:1004C000CF9108951F93CF93DF9300D0CDB7DEB7C0
:1004D00089836A8385E290E025E230E0F90120819A
:1004E0002D7FFC0120838A81882351F085E290E0F2
:1004F00025E230E0F90120812860FC01208309C059
:1005000085E290E025E230E0F9012081277FFC01BF
:10051000208310E03CC08981882F90E0212F30E0BB
:1005200047E050E0BA01621B730B9B0102C0959536
:1005300087952A95E2F781709927892B51F085E2FA
:1005400090E025E230E0F90120812061FC01208368
:1005500009C085E290E025E230E0F90120812F7E9C
:10056000FC01208385E290E025E230E0F901208162
:100570002062FC01208385E290E025E230E0F90171
:1005800020812F7DFC012083812F11E0180F18306E
:1005900010F285E290E025E230E0F901208122604E
:1005A000FC01208300000F900F90DF91CF911F91ED
:1005B0000895CF93DF931F92CDB7DEB7898360E0B4
:1005C00089810E94620200000F90DF91CF9108950F
:1005D000CF93DF931F92CDB7DEB7898361E0898126
:1005E0000E94620200000F90DF91CF9108950F9357
:1005F0001F93CF93DF93CDB7DEB76C970FB6F89408
:10060000DEBF0FBECDBF84E290E024E230E0F9010E
:1006100020812260FC01208384E290E024E230E02B
:10062000F90120812460FC01208384E290E024E22F
:1006300030E0F90120812860FC01208384E290E011
:1006400024E230E0F90120812061FC01208384E272
:1006500090E024E230E0F90120812062FC01208357
:1006600085E290E025E230E0F90120812460FC0180
:10067000208385E290E025E230E0F90120812260CC
:10068000FC01208380E090E0A0E2B1E489839A83BA
:10069000AB83BC8320E030E04AE753E469817A8190
:1006A0008B819C810E94BB0CDC01CB018B8B9C8BD2
:1006B000AD8BBE8B20E030E040E85FE36B897C8946
:1006C0008D899E890E94350C88232CF481E090E06E
:1006D000988F8F8B3FC020E03FEF4FE757E46B8947
:1006E0007C898D899E890E94B60C18164CF520E0F5
:1006F00030E040E251E469817A818B819C810E94E3
:10070000BB0CDC01CB01BC01CD010E943A0CDC0129
:10071000CB01988F8F8B0FC089E190E09A8F898FE2
:10072000898D9A8D0197F1F79A8F898F8F89988D8E
:100730000197988F8F8B8F89988D892B69F714C0BB
:100740006B897C898D899E890E943A0CDC01CB01E2
:10075000988F8F8B8F89988D9C8F8B8F8B8D9C8D95
:100760000197F1F79C8F8B8F85E290E025E230E0D6
:10077000F90120812B7FFC01208380E090E0ACE830
:10078000B2E48D839E83AF83B88720E030E04AE7F0
:1007900053E46D817E818F8198850E94BB0CDC01C2
:1007A000CB0189879A87AB87BC8720E030E040E89F
:1007B0005FE369857A858B859C850E94350C88234B
:1007C0002CF481E090E09E878D873FC020E03FEFD2
:1007D0004FE757E469857A858B859C850E94B60C26
:1007E00018164CF520E030E040E251E46D817E8146
:1007F0008F8198850E94BB0CDC01CB01BC01CD012F
:100800000E943A0CDC01CB019E878D870FC089E1E5
:1008100090E0988B8F878F8598890197F1F7988B57
:100820008F878D859E8501979E878D878D859E8577
:10083000892B69F714C069857A858B859C850E9410
:100840003A0CDC01CB019E878D878D859E859A8B26
:10085000898B89899A890197F1F79A8B898B85E22F
:1008600090E025E230E0F90120812460FC01208342
:1008700085E290E025E230E0F90120812D7FFC0146
:10088000208381E20E94D90283E10E94D90286E09E
:100890000E94D90282EC0E94D90280E20E94D90211
:1008A00089E00E94D90280E80E94D90280E40E9477
:1008B000D90200E010E005C080E00E94E8020F5F6E
:1008C0001F4F083FF1E01F07B8F388E00E94D902EC
:1008D0008CE00E94D90200006C960FB6F894DEBF3F
:1008E0000FBECDBFDF91CF911F910F9108950F9350
:1008F0001F93CF93DF93CDB7DEB780E80E94D90274
:1009000080E40E94D902109276051092770500E0EB
:1009100010E007C0C80182589C4FFC0110820F5F95
:100920001F4F083FF1E01F07A8F30000DF91CF91B0
:100930001F910F910895CF93DF9300D000D01F92A5
:10094000CDB7DEB78B836C834D838C81869586957E
:100950008695882F90E044E5489F9001499F300D8F
:1009600011248B81882F90E0820F931F82589C4F17
:100970009A8389838D818823C9F089819A81FC01BA
:100980008081482F8C81882F90E09C01277033272D
:1009900081E090E002C0880F991F2A95E2F7842B2E
:1009A000282F89819A81FC01208319C089819A812D
:1009B000FC018081482F8C81882F90E09C0127705A
:1009C000332781E090E002C0880F991F2A95E2F753
:1009D00080958423282F89819A81FC01208300003F
:1009E0000F900F900F900F900F90DF91CF9108957F
:1009F000CF93DF9300D0CDB7DEB789836A83898137
:100A0000809376058A818093770500000F900F9080
:100A1000DF91CF9108950F931F93CF93DF93CDB7BD
:100A2000DEB780E80E94D90280E40E94D90200E08B
:100A300010E009C0C80182589C4FFC0180810E94CF
:100A4000E8020F5F1F4F083FF1E01F0798F3000017
:100A5000DF91CF911F910F910895CF93DF9300D035
:100A600000D000D0CDB7DEB79E838D838091760510
:100A7000882F90E09C838B831A821982AFC0898172
:100A80009A81C0979CF429813A818B819C81820F45
:100A9000931F29813A814D815E81240F351FF90111
:100AA000208182589C4FFC01208393C089819A81C8
:100AB000C197CCF089819A8181369105A4F429816E
:100AC0003A818B819C81820F931F849629813A8180
:100AD0004D815E81240F351FF901208182589C4F82
:100AE000FC01208376C089819A8181369105D4F0FA
:100AF00089819A8181399105ACF429813A818B8170
:100B00009C81820F931F885B9F4F29813A814D8181
:100B10005E81240F351FF901208182589C4FFC0112
:100B2000208357C089819A8181399105D4F08981C8
:100B30009A81813C9105ACF429813A818B819C8119
:100B4000820F931F84599F4F29813A814D815E8185
:100B5000240F351FF901208182589C4FFC0120830E
:100B600038C089819A81813C9105D4F089819A812C
:100B7000813F9105ACF429813A818B819C81820F60
:100B8000931F80579F4F29813A814D815E81240FA9
:100B9000351FF901208182589C4FFC01208319C028
:100BA00089819A81813F9105A4F029813A818B81C5
:100BB0009C81820F931F8C549F4F29813A814D81D4
:100BC0005E81240F351FF901208182589C4FFC0162
:100BD000208389819A8101969A83898389819A8168
:100BE000803291400CF44BCF000026960FB6F8945B
:100BF000DEBF0FBECDBFDF91CF910895CF93DF93BE
:100C0000CDB7DEB781E890E02BE0FC01208388E8D7
:100C100090E02DE730E0FC01318320838FE690E007
:100C200022E0FC01208384E890E0FC011182108224
:100C30008091000190910101A0910201B091030106
:100C40008093790590937A05A0937B05B0937C05FA
:100C50008FE590E02FE530E0F90120812068FC016C
:100C600020830000DF91CF910895CF93DF93CDB71C
:100C7000DEB781E890E0FC0110820000DF91CF91A7
:100C80000895CF93DF93CDB7DEB781E080937805E9
:100C90000000DF91CF9108951F920F9200905F00A6
:100CA0000F92112400905B000F922F933F934F936C
:100CB0005F936F937F938F939F93AF93BF93EF93C4
:100CC000FF93CF93DF93CDB7DEB7809179059091F5
:100CD0007A05A0917B05B0917C050197A109B10926
:100CE0008093790590937A05A0937B05B0937C055A
:100CF0008091790590917A05A0917B05B0917C0552
:100D0000892B8A2B8B2B91F40E9441068091000144
:100D100090910101A0910201B091030180937905A6
:100D200090937A05A0937B05B0937C050000DF913A
:100D3000CF91FF91EF91BF91AF919F918F917F9153
:100D40006F915F914F913F912F910F9000925B00B7
:100D50000F9000925F000F901F901895CF93DF9334
:100D600000D000D0CDB7DEB769837A838B839C83B4
:100D700089819A81AB81BC818093000190930101AC
:100D8000A0930201B09303018091000190910101B1
:100D9000A0910201B09103018093790590937A05A7
:100DA000A0937B05B0937C0500000F900F900F90EF
:100DB0000F90DF91CF910895CF93DF93CDB7DEB73A
:100DC0008AE790E02AE730E0F9012081206EFC01FB
:100DD00020830000DF91CF910895CF93DF9300D05F
:100DE0001F92CDB7DEB789837B836A8389818A307E
:100DF00031F48A819B81BC018DE00E94ED0680EC7C
:100E000090E0FC018081882F90E080729927892BE7
:100E1000B1F386EC90E02981FC01208380E090E032
:100E20000F900F900F90DF91CF910895CF93DF93A4
:100E3000CDB7DEB780E290E0FC01808180958093A1
:100E40007D058091910590919205CC01A0E0B0E0E4
:100E500040E050E027E030E0841B950B281739076D
:100E600008F4A0C08A5B9F4FFC010C942C0C81E01D
:100E700090E0909392058093910599C080917D05B3
:100E8000882F90E08F709927089759F480918405F6
:100E9000882339F483E090E0909392058093910544
:100EA00047C080917D05882F90E08F709927089723
:100EB00059F480918405813039F482E090E0909378
:100EC00092058093910534C080917D05882F90E034
:100ED0008F709927049739F484E090E090939205FD
:100EE0008093910564C080917D05882F90E08F707C
:100EF0009927029739F486E090E0909392058093C9
:100F0000910555C080917D05882F90E08F709927BD
:100F1000019739F485E090E09093920580939105D4
:100F200046C081E090E090939205809391053FC088
:100F30003EC087E090E0909392058093910537C082
:100F400087E090E0909392058093910530C087E010
:100F500090E0909392058093910529C087E090E0FE
:100F6000909392058093910522C087E090E0909342
:100F70009205809391051BC080917D05882F90E09C
:100F80008F709927892B39F087E090E09093920534
:100F9000809391050CC081E090E09093920580933E
:100FA000910505C010929205109291050000809164
:100FB000910590919205CC01A0E0B0E040E050E0B6
:100FC00027E030E0841B950B2817390708F4BEC0D2
:100FD000825B9F4FFC010C942C0C1092840585E0E1
:100FE0000E941B028FE40E94BE0186E60E94BE01A1
:100FF00086E60E94BE0180E00E941B02ACC081E038
:101000008093840585E00E941B028FE40E94BE014C
:101010008EE60E94BE0180E20E94BE0180E00E9436
:101020001B0299C080918605882309F093C08091A6
:1010300081058F5F8093810585E10E941B0280916D
:101040008105843071F41092810580918105882F8B
:1010500090E08E5E9E4FFC018081805D0E94BE010B
:101060000BC080918105882F90E08E5E9E4FFC0121
:101070008081805D0E94BE0180E00E941B026AC0E8
:10108000809186058823B1F481E08093860585E10F
:101090000E941B0284E50E94BE0185E60E94BE01FB
:1010A0008DE60E94BE0180E70E94BE0180E00E94A2
:1010B0001B0251C01092860585E10E941B0280E24E
:1010C0000E94BE0180E20E94BE0180E20E94BE0139
:1010D00080E20E94BE0185E10E941B028091810591
:1010E000882F90E08E5E9E4FFC018081805D0E9483
:1010F000BE0180E00E941B022EC0809185058823DE
:1011000099F481E0809385058DE00E941B028FE4B5
:101110000E94BE018EE60E94BE0180E20E94BE01D6
:1011200080E00E941B0217C0109285058DE00E948E
:101130001B028FE40E94BE0186E60E94BE0186E685
:101140000E94BE0180E00E941B0205C0000003C097
:10115000000001C000000000DF91CF910895CF93FF
:10116000DF93CDB7DEB780919305909194058130E0
:10117000910569F08130910518F00297F1F033C0C4
:1011800081E090E0909394058093930534C0809122
:101190008405882339F481E090E09093940580934E
:1011A000930526C080918405813011F582E090E09E
:1011B00090939405809393051BC0809184058823A8
:1011C00039F481E090E0909394058093930512C0E8
:1011D00080918405813071F482E090E090939405D1
:1011E0008093930507C0109294051092930503C055
:1011F000000001C00000809193059091940581301A
:10120000910531F08130910528F1029721F023C03A
:101210001092880520C0809187058B3018F41092B9
:10122000880512C080918105882F90E08A5E9E4FCC
:10123000FC01908180918705981720F081E08093D0
:10124000880502C010928705809187058F5F809383
:10125000870501C000000000DF91CF910895CF9372
:10126000DF93CDB7DEB780918D0590918E058230EA
:10127000910509F45BC08330910528F4009751F083
:10128000019779F099C08330910511F1049709F421
:1012900077C092C081E090E090938E0580938D0599
:1012A0008BC080918505882339F481E090E090938C
:1012B0008E0580938D057FC080918505813009F072
:1012C0007AC083E090E090938E0580938D0573C083
:1012D00080918505882339F481E090E090938E0514
:1012E00080938D051DC080918505813059F48091D2
:1012F0008C05853638F483E090E090938E058093DA
:101300008D050EC080918505813051F480918C054A
:10131000853630F082E090E090938E0580938D05C5
:1013200080918C058F5F80938C0546C080918505E8
:10133000882339F481E090E090938E0580938D05A9
:1013400019C080918505813059F480918C058230D7
:1013500038F483E090E090938E0580938D050AC069
:1013600080918505813031F482E090E090938E0584
:1013700080938D0580918C058F5F80938C051CC0B8
:1013800080918505882339F481E090E090938E0563
:1013900080938D050AC080918505813031F484E009
:1013A00090E090938E0580938D0580918C058F5FE2
:1013B00080938C0501C0000080918D0590918E0571
:1013C0008230910559F18330910530F4009709F48A
:1013D00041C0019739F03FC08330910531F0049747
:1013E00001F139C01092890536C090918A0580912B
:1013F0001B01891720F081E08093890509C0809145
:101400008A05853118F41092890502C010928A0568
:1014100080918A058F5F80938A051DC0109289058F
:101420001AC090918A0580911C01891720F081E0F3
:101430008093890509C080918A05853118F410923E
:10144000890502C010928A0580918A058F5F80937A
:101450008A0501C000000000DF91CF910895CF936D
:10146000DF93CDB7DEB780919505909196058130D9
:10147000910569F08130910518F00297F1F033C0C1
:1014800082E090E0909396058093950534C080911A
:101490008405813039F481E090E090939605809343
:1014A000950526C080918405882311F582E090E09F
:1014B00090939605809395051BC08091840581309B
:1014C00039F481E090E0909396058093950512C0E1
:1014D00080918405882371F482E090E090939605D2
:1014E0008093950507C0109296051092950503C04C
:1014F000000001C000008091950590919605813013
:10150000910531F08130910550F1029751F12CC0D5
:1015100080918B05882381F40E94770460E082E14A
:101520000E94F8048DE392E00E942D050E940B05B5
:1015300081E080938B0517C080918B05813099F4F1
:101540000E94770460E082E10E94F8048DE191E05E
:101550000E942D050E940B0510928B0504C000000F
:1015600003C0000001C000000000DF91CF9108958A
:10157000CF93DF93CDB7DEB780918F059091900523
:10158000009719F0019741F00EC081E090E0909330
:10159000900580938F050CC081E090E090939005BA
:1015A00080938F0505C01092900510928F05000062
:1015B00080918F0590919005009719F1019709F09E
:1015C00021C080918505982F990F80918405980FEF
:1015D00080918905880F880F980F80918805880F62
:1015E000880F880F980F80911A018295807F890F4C
:1015F000809380058BE290E020918005FC012083A0
:1016000001C000000000DF91CF910895CF93DF93D8
:10161000CDB7DEB768970FB6F894DEBF0FBECDBF6B
:1016200081E290E0FC01108282E290E02FEFFC0169
:10163000208384E290E02FEFFC01208385E290E09C
:10164000FC01108287E290E02FEFFC01208388E20A
:1016500090E0FC0110828AE290E02FEFFC012083F1
:101660008BE290E0FC01108219821A821B821C829C
:101670001D821E821F82188619861A861B861C866A
:101680001D861E861F86188A198A1A8A1B8A1C8A3A
:1016900081E090E0A0E0B0E08D8B9E8BAF8BB88FA7
:1016A00080E290E0FC018081809580937D0510921E
:1016B0009205109291051092940510929305109244
:1016C0008E0510928D051092960510929505109238
:1016D000900510928F050E9472010E94670161E0DF
:1016E00070E080E090E00E94AE060E94FE056DE58D
:1016F00073E081E00E94EE0180E00E941B020E94E4
:10170000F7020E94770460E082E10E94F8048DE114
:1017100091E00E942D050E940B0589819A81AB8181
:10172000BC810A97A105B10530F00E941607198205
:101730001A821B821C828D819E81AF81B885892B84
:101740008A2B8B2B31F00E94AF081D821E821F82D4
:10175000188689859A85AB85BC85892B8A2B8B2B2E
:1017600031F00E942F0919861A861B861C868D85EA
:101770009E85AF85B8898A3F9105A105B10530F0F6
:101780000E942F0A1D861E861F86188A89899A89BB
:10179000AB89BC89892B8A2B8B2B31F00E94B80A2C
:1017A000198A1A8A1B8A1C8A00008091780588236E
:1017B000E1F31092780529813A814B815C818D8912
:1017C0009E89AF89B88D820F931FA41FB51F89838F
:1017D0009A83AB83BC832D813E814F8158858D894F
:1017E0009E89AF89B88D820F931FA41FB51F8D836B
:1017F0009E83AF83B88729853A854B855C858D8923
:101800009E89AF89B88D820F931FA41FB51F89874A
:101810009A87AB87BC872D853E854F8558898D89F2
:101820009E89AF89B88D820F931FA41FB51F8D8726
:101830009E87AF87B88B29893A894B895C898D89C6
:101840009E89AF89B88D820F931FA41FB51F898B06
:101850009A8BAB8BBC8B61CFEE0FFF1F0024001C5B
:101860000BBE0790F691E02D09940E94690C08F4D4
:1018700081E008950E94950C88F09F5798F0B92F49
:101880009927B751B0F0E1F0660F771F881F991FB5
:101890001AF0BA95C9F714C0B13091F00E94AF0C9C
:1018A000B1E008950C94AF0C672F782F8827B85FAC
:1018B00039F0B93FCCF3869577956795B395D9F70D
:1018C0003EF490958095709561957F4F8F4F9F4F17
:1018D0000895990F0008550FAA0BE0E8FEEF1616C1
:1018E0001706E807F907C0F012161306E407F50714
:1018F00098F0621B730B840B950B39F40A2661F088
:10190000232B242B252B21F408950A2609F4A1402A
:10191000A6958FEF811D811D089557FD9058440FA6
:10192000551F59F05F3F71F04795880F97FB991F3E
:1019300061F09F3F79F087950895121613061406FB
:10194000551FF2CF4695F1DF08C016161706180688
:10195000991FF1CF86957105610508940895E89463
:10196000BB2766277727CB0197F908950E94690C5A
:1019700008F48FEF08950E94CE0C0C943F0D0E9446
:10198000310D38F00E94380D20F0952311F00C94A1
:10199000280D0C942E0D11240C94B00C0E948D0C6B
:1019A00070F3959FC1F3950F50E0551F629FF001B2
:1019B000729FBB27F00DB11D639FAA27F00DB11DCB
:1019C000AA1F649F6627B00DA11D661F829F222754
:1019D000B00DA11D621F739FB00DA11D621F839FDB
:1019E000A00D611D221F749F3327A00D611D231FB1
:1019F000849F600D211D822F762F6A2F11249F57FF
:101A000050409AF0F1F088234AF0EE0FFF1FBB1F01
:101A1000661F771F881F91505040A9F79E3F5105C0
:101A200080F00C94280D0C94B00C5F3FE4F3983ECA
:101A3000D4F3869577956795B795F795E7959F5F6A
:101A4000C1F7FE2B880F911D9695879597F90895FC
:101A500097F99F6780E870E060E008959FEF80EC61
:101A6000089500240A941616170618060906089504
:101A700000240A9412161306140605060895092E6A
:101A80000394000C11F4882352F0BB0F40F4BF2BD9
:101A900011F460FF04C06F5F7F4F8F4F9F4F089519
:041AA000F894FFCFE8
:101AA400010000000000000200000000ED0600003C
:101AB4000000010203040B14286402020100000068
:101AC4000000000000C0A0F0F0F8F0FCFCDCACF476
:101AD400BCFC78A000000000000000008080C0C0B2
:101AE400C080C08080800000000000000000000072
:101AF4000000006CFFFFFFFFFFFFFFFFFFFFED7B18
:101B0400AFFF0D0300000080F0ECF4ADFFFFFFFF1A
:101B1400FFFFFFFFFFBFF5FA7CF8C00000000000E4
:101B2400000000000103050B0F1F1F2F373F3F77F5
:101B34006F775E381010183BF55B272F1F1D1E1D95
:101B4400353A3D5B7F7E5F3E7F3B1F0000000060B7
:101B5400F4FCBEFEBC7AF4FC7CEC78D8B8F0ECB4AF
:101B6400ECF7F82C1008084CF3DCFCFCECFCF8B89F
:101B7400F0F0F0A04080000000000000000000032E
:101B84001F3B3FEFF7FFFFFFFFFFFFFFFFFFEF7F6D
:101B94003F0F05000000C0F0F5EBBD7BDDFFFFFF4C
:101BA400FFFFFFFFFFFD5C000000000000000000DD
:101BB4000000000001010201030301020101000011
:101BC400000000000000070F3D173F3D3E3F251F6A
:101BD4000D0F0B07030100000000000000000000CF
:101BE4000000000000000000000000000000008071
:101BF400F0D8F8FCF6F2EEBA5CB6EEFC7CFCB8E089
:101C0400F0C00000000000000000000000000080A0
:101C140040E0C0F0F8D8F0F0E0C000000000061783
:101C2400ADFBFFFDEBFBF57FBFFF7B7E3F3B1F174B
:101C34000F03000000000000000000000000BCDDF5
:101C4400EDDFEFBFFBFBD56FDFB77EFCF0E0E0C05C
:101C5400C1857F3D3F1F3E4582C0E0F0F0F8B8FCEF
:101C6400B8FCCC74ECFCB8ECF8F0C0C00000030F76
:101C7400173A3F377F7E7F776B5F771F3F1F1B0DC0
:101C84000607CCB8F8F0E8BCC3070701171F6FFFBD
:101C9400FFFBFF7BFF7FFBD5B7DFFFBF000000002A
:101CA4000000000000000000C0E0A0D0E8F868F4E4
:101CB400EEFB7EFDBFFFEFF5FADDDC600000000007
:101CC40007071E1B372F1F1F0F0D03000000000006
:101CD4000000000000000000071F3F3B7F7F7FEDF6
:101CE400F5EDFBFDEFFF366D371F1E010000000010
:101CF40000000000000000000000000000507772A7
:101D04003A4F6666204F73633A4F66662053706499
:0E1D14003A3120202020202020202020000016
:00000001FF
