:100000000C9446010C9465010C9465010C946501F7
:100010000C9465010C9465010C9465010C946501C8
:100020000C9465010C9465010C9465010C946501B8
:100030000C9465010C944C060C9465010C946501BC
:100040000C9465010C9465010C9465010C94650198
:100050000C9465010C9465010C9465010C94650188
:100060000C9465010C9465010C9465010C94650178
:100070000C9465010C9465010C9465010C94650168
:100080000C9465010C9465010C94650137073E07DB
:100090009907A007A707AE07B507BC07A808A808D7
:1000A000ED07FF07120840087D08A80800000000BF
:1000B0000000005F00000007000700147F147F1499
:1000C000242A7F2A122313086462364955225000DD
:1000D00005030000001C2241000041221C001408FE
:1000E0003E081408083E08080050300000080808C0
:1000F0000808006060000020100804023E514945D5
:100100003E00427F400042615149462141454B310A
:100110001814127F1027454545393C4A494930019A
:10012000710905033649494936064949291E0036F1
:100130003600000056360000081422410014141442
:100140001414004122140802015109063249794170
:100150003E7E1111117E7F494949363E414141227F
:100160007F4141221C7F494949417F090909013EDC
:100170004149497A7F0808087F00417F41002040BB
:10018000413F017F081422417F404040407F020CE4
:10019000027F7F0408107F3E4141413E7F090909EB
:1001A000063E4151215E7F09192946464949493198
:1001B00001017F01013F4040403F1F2040201F3F81
:1001C0004038403F63140814630708700807615102
:1001D000494543007F41410002040810200041418D
:1001E0007F0004020102044040404040000102043C
:1001F0000020545454787F484444383844444420C0
:10020000384444487F3854545418087E0901020C7D
:100210005252523E7F0804047800447D4000204042
:10022000443D007F1028440000417F40007C0418BA
:1002300004787C0804047838444444387C1414144A
:1002400008081414187C7C080404084854545420EA
:10025000043F4440203C4040207C1C2040201C3C6B
:100260004030403C44281028440C5050503C4464DA
:10027000544C44000836410000007F000000413625
:1002800008001008081008000000000011241FBE1C
:10029000CFEFD0E4DEBFCDBF13E0A0E0B1E0E2E5F8
:1002A000F8E100E00BBF02C007900D92AC37B10738
:1002B000D9F725E0ACE7B3E001C01D92A239B2073F
:1002C000E1F70E94010A0C94270C0C940000CF93D4
:1002D000DF93CDB7DEB781E00E948E010000DF9191
:1002E000CF910895CF93DF93CDB7DEB784E690E04A
:1002F0000E94320288E30E948E0186E00E948E01F5
:100300008FE00E948E0181E00E948E018AE090E0E1
:100310000E9432020000DF91CF910895CF93DF93C6
:100320001F92CDB7DEB789838BE290E02BE230E0FD
:10033000F90120812F7BFC01208388E290E0298154
:10034000FC0120838BE290E02BE230E0F901208178
:100350002068FC01208300008BE290E02BE230E07B
:10036000F90120812F77FC01208382E090E00E9438
:10037000320200000F90DF91CF910895CF93DF9369
:100380001F92CDB7DEB789838BE290E02BE230E09D
:10039000F90120812064FC01208388E290E029811A
:1003A000FC0120838BE290E02BE230E0F901208118
:1003B0002068FC01208300008BE290E02BE230E01B
:1003C000F90120812F77FC01208381E090E00E94D9
:1003D000320200000F90DF91CF910895CF93DF9309
:1003E00000D000D0CDB7DEB78A837C836B830E94B8
:1003F00067018A81898311C0898191E0980F99836F
:100400000E941B028B819C819C012F5F3F4F3C838C
:100410002B83FC0180810E94BE018B819C81FC01A9
:100420008081882349F700000F900F900F900F9064
:10043000DF91CF910895CF93DF931F92CDB7DEB7B1
:1004400089838981813128F4898181580E948E01B4
:1004500004C0898181550E948E0100000F90DF91B8
:10046000CF910895CF93DF9300D000D000D0CDB7C7
:10047000DEB79E838D831A82198213C01C821B8271
:1004800006C000008B819C8101969C838B838B81AD
:100490009C8187309340ACF389819A8101969A833D
:1004A000898329813A818D819E812817390734F308
:1004B000000026960FB6F894DEBF0FBECDBFDF91C9
:1004C000CF9108951F93CF93DF9300D0CDB7DEB7C0
:1004D00089836A8385E290E025E230E0F90120819A
:1004E0002D7FFC0120838A81882351F085E290E0F2
:1004F00025E230E0F90120812860FC01208309C059
:1005000085E290E025E230E0F9012081277FFC01BF
:10051000208310E03CC08981882F90E0212F30E0BB
:1005200047E050E0BA01621B730B9B0102C0959536
:1005300087952A95E2F781709927892B51F085E2FA
:1005400090E025E230E0F90120812061FC01208368
:1005500009C085E290E025E230E0F90120812F7E9C
:10056000FC01208385E290E025E230E0F901208162
:100570002062FC01208385E290E025E230E0F90171
:1005800020812F7DFC012083812F11E0180F18306E
:1005900010F285E290E025E230E0F901208122604E
:1005A000FC01208300000F900F90DF91CF911F91ED
:1005B0000895CF93DF931F92CDB7DEB7898360E0B4
:1005C00089810E94620200000F90DF91CF9108950F
:1005D000CF93DF931F92CDB7DEB7898361E0898126
:1005E0000E94620200000F90DF91CF9108950F9357
:1005F0001F93CF93DF93CDB7DEB76C970FB6F89408
:10060000DEBF0FBECDBF84E290E024E230E0F9010E
:1006100020812260FC01208384E290E024E230E02B
:10062000F90120812460FC01208384E290E024E22F
:1006300030E0F90120812860FC01208384E290E011
:1006400024E230E0F90120812061FC01208384E272
:1006500090E024E230E0F90120812062FC01208357
:1006600085E290E025E230E0F90120812460FC0180
:10067000208385E290E025E230E0F90120812260CC
:10068000FC01208380E090E0A0E2B1E489839A83BA
:10069000AB83BC8320E030E04AE753E469817A8190
:1006A0008B819C810E94920BDC01CB018B8B9C8BFC
:1006B000AD8BBE8B20E030E040E85FE36B897C8946
:1006C0008D899E890E940C0B88232CF481E090E098
:1006D000988F8F8B3FC020E03FEF4FE757E46B8947
:1006E0007C898D899E890E948D0B18164CF520E01F
:1006F00030E040E251E469817A818B819C810E94E3
:10070000920BDC01CB01BC01CD010E94110BDC017D
:10071000CB01988F8F8B0FC089E190E09A8F898FE2
:10072000898D9A8D0197F1F79A8F898F8F89988D8E
:100730000197988F8F8B8F89988D892B69F714C0BB
:100740006B897C898D899E890E94110BDC01CB010C
:10075000988F8F8B8F89988D9C8F8B8F8B8D9C8D95
:100760000197F1F79C8F8B8F85E290E025E230E0D6
:10077000F90120812B7FFC01208380E090E0ACE830
:10078000B2E48D839E83AF83B88720E030E04AE7F0
:1007900053E46D817E818F8198850E94920BDC01EC
:1007A000CB0189879A87AB87BC8720E030E040E89F
:1007B0005FE369857A858B859C850E940C0B882375
:1007C0002CF481E090E09E878D873FC020E03FEFD2
:1007D0004FE757E469857A858B859C850E948D0B50
:1007E00018164CF520E030E040E251E46D817E8146
:1007F0008F8198850E94920BDC01CB01BC01CD0159
:100800000E94110BDC01CB019E878D870FC089E10F
:1008100090E0988B8F878F8598890197F1F7988B57
:100820008F878D859E8501979E878D878D859E8577
:10083000892B69F714C069857A858B859C850E9410
:10084000110BDC01CB019E878D878D859E859A8B50
:10085000898B89899A890197F1F79A8B898B85E22F
:1008600090E025E230E0F90120812460FC01208342
:1008700085E290E025E230E0F90120812D7FFC0146
:10088000208381E20E94D90283E10E94D90286E09E
:100890000E94D90282EC0E94D90280E20E94D90211
:1008A00089E00E94D90280E80E94D90280E40E9477
:1008B000D90200E010E005C080E00E94E8020F5F6E
:1008C0001F4F083FF1E01F07B8F388E00E94D902EC
:1008D0008CE00E94D90200006C960FB6F894DEBF3F
:1008E0000FBECDBFDF91CF911F910F9108950F9350
:1008F0001F93CF93DF93CDB7DEB780E80E94D90274
:1009000080E40E94D902109274051092750500E0EF
:1009100010E007C0C80184589C4FFC0110820F5F93
:100920001F4F083FF1E01F07A8F30000DF91CF91B0
:100930001F910F910895CF93DF9300D000D01F92A5
:10094000CDB7DEB78B836C834D838C81869586957E
:100950008695882F90E044E5489F9001499F300D8F
:1009600011248B81882F90E0820F931F84589C4F15
:100970009A8389838D818823C9F089819A81FC01BA
:100980008081482F8C81882F90E09C01277033272D
:1009900081E090E002C0880F991F2A95E2F7842B2E
:1009A000282F89819A81FC01208319C089819A812D
:1009B000FC018081482F8C81882F90E09C0127705A
:1009C000332781E090E002C0880F991F2A95E2F753
:1009D00080958423282F89819A81FC01208300003F
:1009E0000F900F900F900F900F90DF91CF9108957F
:1009F000CF93DF9300D0CDB7DEB789836A83898137
:100A0000809374058A818093750500000F900F9084
:100A1000DF91CF9108950F931F93CF93DF93CDB7BD
:100A2000DEB780E80E94D90280E40E94D90200E08B
:100A300010E009C0C80184589C4FFC0180810E94CD
:100A4000E8020F5F1F4F083FF1E01F0798F3000017
:100A5000DF91CF911F910F910895CF93DF9300D035
:100A600000D000D0CDB7DEB79E838D838091740512
:100A7000882F90E09C838B831A821982AFC0898172
:100A80009A81C0979CF429813A818B819C81820F45
:100A9000931F29813A814D815E81240F351FF90111
:100AA000208184589C4FFC01208393C089819A81C6
:100AB000C197CCF089819A8181369105A4F429816E
:100AC0003A818B819C81820F931F849629813A8180
:100AD0004D815E81240F351FF901208184589C4F80
:100AE000FC01208376C089819A8181369105D4F0FA
:100AF00089819A8181399105ACF429813A818B8170
:100B00009C81820F931F885B9F4F29813A814D8181
:100B10005E81240F351FF901208184589C4FFC0110
:100B2000208357C089819A8181399105D4F08981C8
:100B30009A81813C9105ACF429813A818B819C8119
:100B4000820F931F84599F4F29813A814D815E8185
:100B5000240F351FF901208184589C4FFC0120830C
:100B600038C089819A81813C9105D4F089819A812C
:100B7000813F9105ACF429813A818B819C81820F60
:100B8000931F80579F4F29813A814D815E81240FA9
:100B9000351FF901208184589C4FFC01208319C026
:100BA00089819A81813F9105A4F029813A818B81C5
:100BB0009C81820F931F8C549F4F29813A814D81D4
:100BC0005E81240F351FF901208184589C4FFC0160
:100BD000208389819A8101969A83898389819A8168
:100BE000803291400CF44BCF000026960FB6F8945B
:100BF000DEBF0FBECDBFDF91CF910895CF93DF93BE
:100C0000CDB7DEB781E890E02BE0FC01208388E8D7
:100C100090E02DE730E0FC01318320838FE690E007
:100C200022E0FC01208384E890E0FC011182108224
:100C30008091000190910101A0910201B091030106
:100C40008093770590937805A0937905B0937A0502
:100C50008FE590E02FE530E0F90120812068FC016C
:100C600020830000DF91CF910895CF93DF93CDB71C
:100C7000DEB781E890E0FC0110820000DF91CF91A7
:100C80000895CF93DF93CDB7DEB781E080937605EB
:100C90000000DF91CF9108951F920F9200905F00A6
:100CA0000F92112400905B000F922F933F934F936C
:100CB0005F936F937F938F939F93AF93BF93EF93C4
:100CC000FF93CF93DF93CDB7DEB7809177059091F7
:100CD0007805A0917905B0917A050197A109B1092C
:100CE0008093770590937805A0937905B0937A0562
:100CF0008091770590917805A0917905B0917A055A
:100D0000892B8A2B8B2B91F40E9441068091000144
:100D100090910101A0910201B091030180937705A8
:100D200090937805A0937905B0937A050000DF9140
:100D3000CF91FF91EF91BF91AF919F918F917F9153
:100D40006F915F914F913F912F910F9000925B00B7
:100D50000F9000925F000F901F901895CF93DF9334
:100D600000D000D0CDB7DEB769837A838B839C83B4
:100D700089819A81AB81BC818093000190930101AC
:100D8000A0930201B09303018091000190910101B1
:100D9000A0910201B09103018093770590937805AB
:100DA000A0937905B0937A0500000F900F900F90F3
:100DB0000F90DF91CF910895CF93DF93CDB7DEB73A
:100DC0008AE790E02AE730E0F9012081206EFC01FB
:100DD00020830000DF91CF910895CF93DF9300D05F
:100DE0001F92CDB7DEB789837B836A8389818A307E
:100DF00031F48A819B81BC018DE00E94ED0680EC7C
:100E000090E0FC018081882F90E080729927892BE7
:100E1000B1F386EC90E02981FC01208380E090E032
:100E20000F900F900F90DF91CF910895CF93DF93A4
:100E3000CDB7DEB780E290E0FC01808180958093A1
:100E40007B0580918C0590918D05CC01A0E0B0E0F0
:100E500040E050E027E030E0841B950B281739076D
:100E600008F4A0C08A5B9F4FFC010C94030B81E047
:100E700090E090938D0580938C0599C080917B05BF
:100E8000882F90E08F709927089759F480918205F8
:100E9000882339F483E090E090938D0580938C054E
:100EA00047C080917B05882F90E08F709927089725
:100EB00059F480918205813039F482E090E090937A
:100EC0008D0580938C0534C080917B05882F90E040
:100ED0008F709927049739F484E090E090938D0502
:100EE00080938C0564C080917B05882F90E08F7083
:100EF0009927029739F486E090E090938D058093CE
:100F00008C0555C080917B05882F90E08F709927C4
:100F1000019739F485E090E090938D0580938C05DE
:100F200046C081E090E090938D0580938C053FC092
:100F30003EC087E090E090938D0580938C0537C08C
:100F400087E090E090938D0580938C0530C087E01A
:100F500090E090938D0580938C0529C087E090E008
:100F600090938D0580938C0522C087E090E090934C
:100F70008D0580938C051BC080917B05882F90E0A8
:100F80008F709927892B39F087E090E090938D0539
:100F900080938C050CC081E090E090938D05809348
:100FA0008C0505C010928D0510928C050000809173
:100FB0008C0590918D05CC01A0E0B0E040E050E0C0
:100FC00027E030E0841B950B2817390708F4BEC0D2
:100FD000825B9F4FFC010C94030B1092820585E00D
:100FE0000E941B028FE40E94BE0186E60E94BE01A1
:100FF00086E60E94BE0180E00E941B02ACC081E038
:101000008093820585E00E941B028FE40E94BE014E
:101010008EE60E94BE0180E20E94BE0180E00E9436
:101020001B0299C080918405882309F093C08091A8
:101030007F058F5F80937F0585E10E941B02809171
:101040007F05843071F410927F0580917F05882F91
:1010500090E08E5E9E4FFC018081805D0E94BE010B
:101060000BC080917F05882F90E08E5E9E4FFC0123
:101070008081805D0E94BE0180E00E941B026AC0E8
:10108000809184058823B1F481E08093840585E113
:101090000E941B0284E50E94BE0185E60E94BE01FB
:1010A0008DE60E94BE0180E70E94BE0180E00E94A2
:1010B0001B0251C01092840585E10E941B0280E250
:1010C0000E94BE0180E20E94BE0180E20E94BE0139
:1010D00080E20E94BE0185E10E941B0280917F0593
:1010E000882F90E08E5E9E4FFC018081805D0E9483
:1010F000BE0180E00E941B022EC0809183058823E0
:1011000099F481E0809383058DE00E941B028FE4B7
:101110000E94BE018EE60E94BE0180E20E94BE01D6
:1011200080E00E941B0217C0109283058DE00E9490
:101130001B028FE40E94BE0186E60E94BE0186E685
:101140000E94BE0180E00E941B0205C0000003C097
:10115000000001C000000000DF91CF910895CF93FF
:10116000DF93CDB7DEB780918E0590918F058130EA
:10117000910569F08130910518F00297F1F033C0C4
:1011800081E090E090938F0580938E0534C080912C
:101190008205882339F481E090E090938F05809355
:1011A0008E0526C080918205813011F582E090E0A5
:1011B00090938F0580938E051BC0809182058823B4
:1011C00039F481E090E090938F0580938E0512C0F2
:1011D00080918205813071F482E090E090938F05D8
:1011E00080938E0507C010928F0510928E0503C064
:1011F000000001C0000080918E0590918F05813024
:10120000910531F08130910528F1029721F023C03A
:101210001092860520C0809185058B3018F41092BD
:10122000860512C080917F05882F90E08A5E9E4FD0
:10123000FC01908180918505981720F081E08093D2
:10124000860502C010928505809185058F5F809389
:10125000850501C000000000DF91CF910895CF9374
:10126000DF93CDB7DEB780919005909191058130E5
:10127000910569F08130910518F00297F1F033C0C3
:1012800082E090E0909391058093900534C0809126
:101290008205813039F481E090E09093910580934C
:1012A000900526C080918205882311F582E090E0A8
:1012B00090939105809390051BC0809182058130A9
:1012C00039F481E090E0909391058093900512C0ED
:1012D00080918205882371F482E090E090939105DB
:1012E0008093900507C0109291051092900503C05D
:1012F000000001C00000809190059091910581301F
:10130000910531F08130910550F1029751F12CC0D7
:1013100080918705882381F40E94770460E082E150
:101320000E94F8048BE392E00E942D050E940B05B9
:1013300081E08093870517C080918705813099F4FB
:101340000E94770460E082E10E94F8048BE191E062
:101350000E942D050E940B051092870504C0000015
:1013600003C0000001C000000000DF91CF9108958C
:10137000CF93DF93CDB7DEB7809188059091890533
:10138000009719F0019741F00EC081E090E0909332
:101390008905809388050CC081E090E090938905D1
:1013A0008093880505C01092890510928805000079
:1013B00080918805909189050097F1F0019709F0D7
:1013C0001CC080918305982F990F80918205980FFA
:1013D00080918605880F880F880F980F80911A01D9
:1013E0008295807F890F80937E058BE290E020912B
:1013F0007E05FC01208301C000000000DF91CF9139
:101400000895CF93DF93CDB7DEB764970FB6F89406
:10141000DEBF0FBECDBF81E290E0FC01108282E210
:1014200090E02FEFFC01208384E290E02FEFFC019D
:10143000208385E290E0FC01108287E290E02FEFAC
:10144000FC01208388E290E0FC0110828AE290E0B7
:101450002FEFFC0120838BE290E0FC0110821982C7
:101460001A821B821C821D821E821F821886198688
:101470001A861B861C861D861E861F86188A81E09A
:1014800090E0A0E0B0E0898B9A8BAB8BBC8B80E2C4
:1014900090E0FC018081809580937B0510928D0502
:1014A00010928C0510928F0510928E051092910566
:1014B0001092900510928905109288050E94DC0612
:1014C0000E9472010E94670161E070E080E090E09C
:1014D0000E94AE060E94FE056BE573E081E00E946B
:1014E000EE0180E00E941B020E94F7020E94770436
:1014F00060E082E10E94F8048BE191E00E942D05FA
:101500000E940B0589819A81AB81BC810A97A10554
:10151000B10530F00E94160719821A821B821C82C4
:101520008D819E81AF81B885892B8A2B8B2B31F0E1
:101530000E94AF081D821E821F82188689859A85A7
:10154000AB85BC858A3F9105A105B10530F00E94AD
:101550002F0919861A861B861C868D859E85AF8568
:10156000B889892B8A2B8B2B31F00E94B8091D86F4
:101570001E861F86188A0000809176058823E1F375
:101580001092760529813A814B815C8189899A89FB
:10159000AB89BC89820F931FA41FB51F89839A83CF
:1015A000AB83BC832D813E814F81588589899A897F
:1015B000AB89BC89820F931FA41FB51F8D839E83A7
:1015C000AF83B88729853A854B855C8589899A8957
:1015D000AB89BC89820F931FA41FB51F89879A8787
:1015E000AB87BC872D853E854F85588989899A8927
:1015F000AB89BC89820F931FA41FB51F8D879E875F
:10160000AF87B88B7FCFEE0FFF1F0024001C0BBEEF
:101610000790F691E02D09940E94400B08F481E0B8
:1016200008950E946C0B88F09F5798F0B92F992766
:10163000B751B0F0E1F0660F771F881F991F1AF0BD
:10164000BA95C9F714C0B13091F00E94860BB1E091
:1016500008950C94860B672F782F8827B85F39F090
:10166000B93FCCF3869577956795B395D9F73EF456
:1016700090958095709561957F4F8F4F9F4F0895FE
:10168000990F0008550FAA0BE0E8FEEF1616170693
:10169000E807F907C0F012161306E407F50798F0FB
:1016A000621B730B840B950B39F40A2661F0232B14
:1016B000242B252B21F408950A2609F4A140A69590
:1016C0008FEF811D811D089557FD9058440F551FC0
:1016D00059F05F3F71F04795880F97FB991F61F0B4
:1016E0009F3F79F087950895121613061406551F2B
:1016F000F2CF4695F1DF08C0161617061806991F97
:10170000F1CF86957105610508940895E894BB278B
:1017100066277727CB0197F908950E94400B08F4BC
:101720008FEF08950E94A50B0C94160C0E94080CD4
:1017300038F00E940F0C20F0952311F00C94FF0B51
:101740000C94050C11240C94870B0E94640B70F30D
:10175000959FC1F3950F50E0551F629FF001729F56
:10176000BB27F00DB11D639FAA27F00DB11DAA1F65
:10177000649F6627B00DA11D661F829F2227B00DB2
:10178000A11D621F739FB00DA11D621F839FA00D3D
:10179000611D221F749F3327A00D611D231F849F8D
:1017A000600D211D822F762F6A2F11249F575040E4
:1017B0009AF0F1F088234AF0EE0FFF1FBB1F661F5F
:1017C000771F881F91505040A9F79E3F510580F028
:1017D0000C94FF0B0C94870B5F3FE4F3983ED4F31B
:1017E000869577956795B795F795E7959F5FC1F7CC
:1017F000FE2B880F911D9695879597F9089597F977
:101800009F6780E870E060E008959FEF80EC0895A6
:1018100000240A94161617061806090608950024CF
:101820000A9412161306140605060895092E039449
:10183000000C11F4882352F0BB0F40F4BF2B11F4BD
:1018400060FF04C06F5F7F4F8F4F9F4F0895F894E4
:02185000FFCFC8
:10185200010000000000000200000000ED06000090
:101862000000010203040B142864020000000000BF
:10187200000000C0A0F0F0F8F0FCFCDCACF4BCFC12
:1018820078A000000000000000008080C0C0C0807E
:10189200C080808000000000000000000000000006
:1018A200006CFFFFFFFFFFFFFFFFFFFFED7BAFFFBE
:1018B2000D0300000080F0ECF4ADFFFFFFFFFFFF1F
:1018C200FFFFFFBFF5FA7CF8C00000000000000037
:1018D20000000103050B0F1F1F2F373F3F776F7764
:1018E2005E381010183BF55B272F1F1D1E1D353A61
:1018F2003D5B7F7E5F3E7F3B1F0000000060F4FC8B
:10190200BEFEBC7AF4FC7CEC78D8B8F0ECB4ECF710
:10191200F82C1008084CF3DCFCFCECFCF8B8F0F0F6
:10192200F0A04080000000000000000000031F3B08
:101932003FEFF7FFFFFFFFFFFFFFFFFFEF7F3F0FCD
:1019420005000000C0F0F5EBBD7BDDFFFFFFFFFFF0
:10195200FFFFFFFD5C00000000000000000000002F
:101962000000010102010303010201010000000065
:1019720000000000070F3D173F3D3E3F251F0D0FA2
:101982000B0703010000000000000000000000003F
:101992000000000000000000000000000080F0D8FD
:1019A200F8FCF6F2EEBA5CB6EEFC7CFCB8E0F0C0F5
:1019B200000000000000000000000000008040E085
:1019C200C0F0F8D8F0F0E0C0000000000617ADFB50
:1019D200FFFDEBFBF57FBFFF7B7E3F3B1F170F0336
:1019E200000000000000000000000000BCDDEDDF90
:1019F200EFBFFBFBD56FDFB77EFCF0E0E0C0C18537
:101A02007F3D3F1F3E4582C0E0F0F0F8B8FCB8FCD5
:101A1200CC74ECFCB8ECF8F0C0C00000030F173A2D
:101A22003F377F7E7F776B5F771F3F1F1B0D060758
:101A3200CCB8F8F0E8BCC3070701171F6FFFFFFB24
:101A4200FF7BFF7FFBD5B7DFFFBF00000000000078
:101A5200000000000000C0E0A0D0E8F868F4EEFB4F
:101A62007EFDBFFFEFF5FADDDC6000000000070736
:101A72001E1B372F1F1F0F0D030000000000000068
:101A8200000000000000071F3F3B7F7F7FEDF5ED68
:101A9200FBFDEFFF366D371F1E0100000000000046
:101AA20000000000000000000000005077723A4F72
:101AB2006666204F73633A4F6666205370643A310C
:0C1AC200202020202020202020200000D8
:00000001FF
